:0300000002093CB6
:0C093C00787FE4F6D8FD75810A020855AA
:080948007F017E02DEFEDFFAF2
:010950002284
:1008E900D2B2D2B330B31830B21530B30320B2FA52
:1008F90030B3F120B2EE30B30330B2FA7F01227F78
:020909000022CA
:10090B0030B31820B21530B30330B2FA30B3F13034
:0E091B00B2EE30B30320B2FA7F01227F002239
:10088F00D2B2120948E4FCD2B3120948ED25E0FDBB
:10089F00A2B2E4334205120948C2B31209480CBC94
:0E08AF0008E5C2B2120948120948D2B2AF05DC
:0108BD002218
:1008BE007BC81208E9EF6401702012088FEF701ADE
:1008CE0012088FBF011412088F8F0A12090BEF70D6
:0A08DE0009EBD3940040031B80F1E6
:0108E80022ED
:08092900D2A2D2A3AF09AE086F
:0B093100EF1FAC0670011E4C70F62298
:10085500E50AFD7C007E3A7F981208008E088F0914
:100865001208BEE50A60E9D2A0C2A1120929D2A0E8
:10087500D2A1D2A2C2A312092DC2A0D2A1120929C6
:0A088500D2A0D2A1C2A2D2A380C665
:10080000BC000BBE0029EF8DF084FFADF022E4CCDC
:10081000F875F008EF2FFFEE33FEEC33FCEE9DECA5
:10082000984005FCEE9DFE0FD5F0E9E4CEFD22EDEB
:10083000F8F5F0EE8420D21CFEADF075F008EF2F35
:10084000FFED33FD4007985006D5F0F222C398FD26
:050850000FD5F0EA22C3
:00000001FF
