:03000000020E5C91
:0C0E5C00787FE4F6D8FD75813A020EA301
:100FA900E5387045E53924FE601A14602A24027078
:100FB90038E4FF741E2FF8E6FE742A2FF8A6060FF0
:100FC900BF08F022E4FF74082FF8E6FE742A2FF810
:100FD900A6060FBF08F022E4FF74102FF8E6FE748E
:090FE9002A2FF8A6060FBF08F03C
:010FF20022DC
:100EE800120FA9E4F532E532B40800504D900EFC1B
:100EF800F8282873020F14020F18020F20020F247B
:100F0800020F2C020F30020F38020F3CC2A28002DF
:100F1800D2A2C2A3C2A48022C2A28002D2A2D2A319
:100F2800C2A48016C2A28002D2A2C2A3D2A4800AFE
:100F3800C2A28002D2A2D2A3D2A4742A2532F8E691
:100F4800F5807F147E00121187E4F5800532E532C2
:050F5800C39408409164
:010F5D002271
:0511790012117ED2A15D
:08117E007F017E02DEFEDFFAB4
:011186002246
:0F116A00D2A0121179C2A012117EC2A102117E71
:0A119200C2A0121179D2A002117E52
:02103500AD0705
:10103700E4FBFAEDC4131313540124FF92A0ED252A
:10104700E0FD121179C2A112117E0BBB08E5D2A0F7
:1010570012117ED2A130A00F0AEAD394C840F6C27B
:0E106700A112117E7F0022C2A112117E7F0114
:011075002258
:10112900AC05A90712116AE4FF121035AF011210BC
:0911390035AF04121035021192C9
:04119C000218000035
:100DBC00E4F53275900FE590640F7003020E5B7FC3
:100DCC00E87E03121187E590640F7003020E5B75C9
:100DDC00900FAF90EF24F5601224FE601614601B88
:100DEC002407701DE4F518F519801675180075198F
:100DFC0001800E751800751902800675180075199A
:100E0C00037590F0AF90EF2450601424E06014242C
:100E1C00F060142470701B851818851919801374D0
:100E2C0004800674088002740C2519F519E4351831
:100E3C00F518C3E532648094B25011E59064F0600B
:0F0E4C000B7FE87E03121187053280E6751B01CC
:010E5B002274
:100CEC00E5386003020DBBE53924FD606404600344
:100CFC00020DBBE51BB40115AE1CAF1D7C007D0ABB
:100D0C00120B2AE5192FF51DE5183EF51CE51D45BE
:100D1C001C7009E51B64016003020DBBE4F51BAEFE
:100D2C001CAF1DFC7D0A120B3C74592FF5827411FB
:100D3C003EF583E493F509AE1CAF1D7C007D0A12D1
:100D4C000B3C74592DF58274113CF583E493F50A30
:100D5C0022E51BB4010AE51A75F00AA42519F51A47
:100D6C00E51A7006E51B64017045E4F51BAF1AFE2D
:100D7C007C037DE8120B3C7E007F64CFCDCFCECCC4
:100D8C00CE120B3C74592FF58274113EF583E4930B
:100D9C00F513E51A75F06484E5F075F00A8490118A
:100DAC005993F514E51A75F00A84E5F093F51522BC
:101159003F065B4F666D7D077F6F777C395E7971DE
:011169000085
:0311A000013A0011
:1010B400121142120BD5120F5E120DBC120CEC125F
:1010C4000EE8AC1CAD1DE4120A70AB29AA28A927AE
:1010D400A8261209FE60D940D7AD1A7F0112112942
:0210E40080CEBC
:10110B00D3EF9400EE940040147D6E7C00ED1D70C7
:0D111B00011CED4C70F7EF1F70E61E80E325
:0111280022A4
:1010E600C2B77B46AF031BEF70FAD2B7E4FB30B74B
:1010F600117F017E0012110B0BEBD3940540EF7F9D
:0411060000227F0143
:01110A0022C2
:0C0FF3001210E67F017E0012110B7FCC73
:100FFF00E4FBFAC2B70534E53470020533EF139200
:10100F00B7753300753406E5341534AC33700215FB
:10101F00334C70F3D2B7EFC313FF0BBB00010AEBD6
:05102F0064084A70CEC8
:011034002299
:101076007D087C00C2B70FBF0000D2B70FBF0000CB
:101086000FBF0000A2B7E433C43333335480FBE907
:10109600C3134BF97E007F04EF1FAA0670011E4A98
:0D10A60070F6ED1D70011CED4C70C9AF011E
:0110B300221A
:0811A400120FF37F44020FFF5C
:0811AC00120FF37FBE020FFFDA
:10114200E4FFFE1211A41211AC1210768F321210AB
:0611520076EFFEE532FF1E
:011158002274
:0B118700EF1FAC0670011E4C70F6223A
:040BD5008E328F339A
:100BD900C3E532648094805013751E40E5331533A4
:100BE900700215326333FF6332FF8003E4F51EACF4
:100BF90032AD33EC120A708F378E368D358C34E472
:100C0900FFFE7DC87C40AB37AA36A935A834120847
:100C1900F8E4FBFAF9783F120807120AA98E328F15
:100C290033AE32AF337C007D64120B91AC06AD0755
:100C3900EC120A708F298E288D278C26AE32AF339D
:100C49007C277D10120B9174592FF58274113EF592
:100C590083E493F51FAE32AF337C277D10120B91DD
:100C69007E037FE8CFCDCFCECCCE120B9174592F16
:100C7900F58274113EF583E493F520AE32AF337CEF
:100C8900037DE8120B917E007F64CFCDCFCECCCE11
:100C9900120B9174592FF58274113EF583E4934434
:100CA90080F521AE32AF337C007D64120B917E005A
:100CB9007F0ACFCDCFCECCCE120B9174592FF582AE
:100CC90074113EF583E493F522AE32AF337C007D97
:100CD9000A120B9174592DF58274113CF583E49332
:020CE900F523F1
:010CEB0022E6
:100F5E0020A5137FE87E0312118720A506753800A1
:100F6E0075390130A5FD20A6187FE87E0312118782
:100F7E0020A60B753800753902E4F51CF51D30A559
:100F8E00FD20A7167FE87E0312118720A70975386A
:0B0F9E0000753903E4F51A30A5FD22B0
:10080000020B15E86480F8E933E83360110460F006
:10081000ED33EC337009E8FCE9FDEAFEEBFF22045E
:1008200060DED3EB9FEA9EE99DE8C2E78CF0C2F759
:1008300095F0400CE8CCF8E9CDF9EACEFAEBCFFB25
:10084000120AE085D0F05804700320D5B3E8047094
:10085000075002B2D5020B1F92D5EC0460F7E4CC2E
:10086000C0E0C398F8603B94186008400DD0E0FBEE
:10087000020AF7E4FBFAC9FC8028E830E406E4C980
:10088000FBE4CAFCE830E305E4C9CACBFCE8540742
:100890006010F8C3E913F9EA13FAEB13FBEC13FC4D
:1008A000D8F130F52FC3E49CFCEF9BFFEE9AFEEDF0
:1008B00099FDD0E0FBEF4E4D4C701222DB03020B92
:1008C0001CEC2CFCEF33FFEE33FEED33FDED30E797
:1008D000EB020AF7EF2BFFEE3AFEED39FDD0E0FB1D
:1008E00050130BBB0003020B1FED13FDEE13FEEFC5
:0808F00013FFEC13FC020AF7F0
:1008F800EC4D6011E8497017ED33EC3304600DE4FA
:10090800FCFFFEFD22E933E8330470F8020B1512F0
:100918000AE058046009E4CC2481500628500902F2
:100928000B1F284003020B1CC0E0EB4A7044B9803F
:1009380006D0E0FB020B0BEF4E701CBD8008EBFFEE
:10094800EAFEE9FD80EBE98DF0A4FEE5F00209E19D
:10095800E9CDF9EAFEEBFFEF89F0A4FCE5F0CE89DA
:10096800F0A42EFFE435F0CD89F0A42DFEE435F097
:100978008067EF4E7005BD80D780C3EF8BF0A4ACC5
:10098800F0EE8BF0A42CFCE435F0F8EF8AF0A42C00
:10099800E5F038FCE433CB8DF0A42CFCE5F03BF813
:1009A800EE8AF0A42CFCE5F038F8E433CF89F0A403
:1009B8002CFCE5F038CF3400CE89F0A42FFFE5F009
:1009C8003EFEE433C98DF0A42EFEE5F039CD8AF061
:1009D800A42FFFE5F03EFEE43DFD33D0E0FB5007D9
:1009E8000BBB000F020B1FEC2CFCEF33FFEE33FEAA
:0609F800ED33FD020AF7D9
:1009FE0074F8CC6480CCC86480C8F582046043C3AC
:100A0E00EB9FF5F0EA9E42F0E99D42F0E89C45F03E
:100A1E0060305018E5825FFFE582F42B5582FB5063
:100A2E00210ABA001D09B90019088016E5825BFB80
:100A3E00E582F42F5582FF50090EBE00050DBD0054
:100A4E00010CC3EB9FF5F0EA9E42F0E99D42F0E8FF
:0D0A5E009C45F06007CC4820E701B3EC2276
:100A6B0075F020800E75F010800575F0087D007E06
:100A7B00007F003392D530D503120BC7EC334010F7
:100A8B00EF33FFEE33FEED33FDEC33FCD5F0ED220F
:0E0A9B00E5F0247EA2D513CC92E7CDCEFF224B
:100AA900EDD2E7CD33EC3392D524814006E4FFFE45
:100AB900FDFC22FCE4CFCECDCC24E0501174FF80A4
:100AC900EDC3CC13CCCD13CDCE13CECF13CF047041
:070AD900F030D5DE020BC76F
:100AE000E9D2E7C933E833F892D5EDD2E7CD33EC5C
:070AF00033FC5002B2D522D5
:100AF700EC30E7100FBF000C0EBE00080DBD000460
:100B07000BEB6014A2D5EB13FCED92E7FD2274FF0B
:100B1700FCFDFEFF22E480F8A2D574FF13FC7D8064
:030B2700E480EF78
:100E68000210B4E493A3F8E493A34003F68001F2DC
:100E780008DFF48029E493A3F85407240CC8C3338B
:100E8800C4540F4420C8834004F456800146F6DF5A
:100E9800E4800B010204081020408090119CE47E3D
:100EA800019360BCA3FF543F30E509541FFEE4934F
:100EB800A360010ECF54C025E060A840B8E493A316
:100EC800FAE493A3F8E493A3C8C582C8CAC583CA41
:100ED800F0A3C8C582C8CAC583CADFE9DEE780BEF9
:0111A300004B
:100B2A00EF8DF0A4A8F0CF8CF0A428CE8DF0A42EDF
:020B3A00FE2299
:100B3C00BC000BBE0029EF8DF084FFADF022E4CC9D
:100B4C00F875F008EF2FFFEE33FEEC33FCEE9DEC66
:100B5C00984005FCEE9DFE0FD5F0E9E4CEFD22EDAC
:100B6C00F8F5F0EE8420D21CFEADF075F008EF2FF6
:100B7C00FFED33FD4007985006D5F0F222C398FDE7
:050B8C000FD5F0EA2284
:100B9100C2D5EC30E709B2D5E4C39DFDE49CFCEE7F
:100BA10030E715B2D5E4C39FFFE49EFE120B3CC3B0
:100BB100E49DFDE49CFC8003120B3C30D507C3E4AB
:060BC1009FFFE49EFE22EE
:0E0BC700C3E49FFFE49EFEE49DFDE49CFC223F
:00000001FF
